{
  "_format": "hh-sol-artifact-1",
  "contractName": "NTFMarket",
  "sourceName": "contracts/NTFMarket.sol",
  "abi": [
    {
      "inputs": [],
      "stateMutability": "nonpayable",
      "type": "constructor"
    },
    {
      "inputs": [],
      "name": "ReentrancyGuardReentrantCall",
      "type": "error"
    },
    {
      "anonymous": false,
      "inputs": [
        {
          "indexed": true,
          "internalType": "uint256",
          "name": "itemId",
          "type": "uint256"
        },
        {
          "indexed": true,
          "internalType": "address",
          "name": "nftContract",
          "type": "address"
        },
        {
          "indexed": true,
          "internalType": "uint256",
          "name": "tokenId",
          "type": "uint256"
        },
        {
          "indexed": false,
          "internalType": "address",
          "name": "seller",
          "type": "address"
        },
        {
          "indexed": false,
          "internalType": "uint256",
          "name": "price",
          "type": "uint256"
        }
      ],
      "name": "MarketItemCreated",
      "type": "event"
    },
    {
      "inputs": [],
      "name": "_itemSoldIds",
      "outputs": [
        {
          "internalType": "uint256",
          "name": "",
          "type": "uint256"
        }
      ],
      "stateMutability": "view",
      "type": "function"
    },
    {
      "inputs": [
        {
          "internalType": "address",
          "name": "nftContract",
          "type": "address"
        },
        {
          "internalType": "uint256",
          "name": "tokenId",
          "type": "uint256"
        },
        {
          "internalType": "uint256",
          "name": "price",
          "type": "uint256"
        }
      ],
      "name": "createMarketItem",
      "outputs": [],
      "stateMutability": "payable",
      "type": "function"
    },
    {
      "inputs": [
        {
          "internalType": "address",
          "name": "nftContract",
          "type": "address"
        },
        {
          "internalType": "uint256",
          "name": "itemId",
          "type": "uint256"
        }
      ],
      "name": "createMarketSale",
      "outputs": [],
      "stateMutability": "payable",
      "type": "function"
    },
    {
      "inputs": [],
      "name": "fetchItemsCreated",
      "outputs": [
        {
          "components": [
            {
              "internalType": "uint256",
              "name": "itemId",
              "type": "uint256"
            },
            {
              "internalType": "address",
              "name": "nftContract",
              "type": "address"
            },
            {
              "internalType": "uint256",
              "name": "tokenId",
              "type": "uint256"
            },
            {
              "internalType": "address payable",
              "name": "seller",
              "type": "address"
            },
            {
              "internalType": "address payable",
              "name": "owner",
              "type": "address"
            },
            {
              "internalType": "uint256",
              "name": "price",
              "type": "uint256"
            },
            {
              "internalType": "bool",
              "name": "sold",
              "type": "bool"
            }
          ],
          "internalType": "struct NTFMarket.MarketItem[]",
          "name": "",
          "type": "tuple[]"
        }
      ],
      "stateMutability": "view",
      "type": "function"
    },
    {
      "inputs": [],
      "name": "fetchMarketItems",
      "outputs": [
        {
          "components": [
            {
              "internalType": "uint256",
              "name": "itemId",
              "type": "uint256"
            },
            {
              "internalType": "address",
              "name": "nftContract",
              "type": "address"
            },
            {
              "internalType": "uint256",
              "name": "tokenId",
              "type": "uint256"
            },
            {
              "internalType": "address payable",
              "name": "seller",
              "type": "address"
            },
            {
              "internalType": "address payable",
              "name": "owner",
              "type": "address"
            },
            {
              "internalType": "uint256",
              "name": "price",
              "type": "uint256"
            },
            {
              "internalType": "bool",
              "name": "sold",
              "type": "bool"
            }
          ],
          "internalType": "struct NTFMarket.MarketItem[]",
          "name": "",
          "type": "tuple[]"
        }
      ],
      "stateMutability": "view",
      "type": "function"
    },
    {
      "inputs": [],
      "name": "fetchMyNTFs",
      "outputs": [
        {
          "components": [
            {
              "internalType": "uint256",
              "name": "itemId",
              "type": "uint256"
            },
            {
              "internalType": "address",
              "name": "nftContract",
              "type": "address"
            },
            {
              "internalType": "uint256",
              "name": "tokenId",
              "type": "uint256"
            },
            {
              "internalType": "address payable",
              "name": "seller",
              "type": "address"
            },
            {
              "internalType": "address payable",
              "name": "owner",
              "type": "address"
            },
            {
              "internalType": "uint256",
              "name": "price",
              "type": "uint256"
            },
            {
              "internalType": "bool",
              "name": "sold",
              "type": "bool"
            }
          ],
          "internalType": "struct NTFMarket.MarketItem[]",
          "name": "",
          "type": "tuple[]"
        }
      ],
      "stateMutability": "view",
      "type": "function"
    },
    {
      "inputs": [],
      "name": "listingPrice",
      "outputs": [
        {
          "internalType": "uint256",
          "name": "",
          "type": "uint256"
        }
      ],
      "stateMutability": "view",
      "type": "function"
    },
    {
      "inputs": [
        {
          "internalType": "uint256",
          "name": "",
          "type": "uint256"
        }
      ],
      "name": "marketItems",
      "outputs": [
        {
          "internalType": "uint256",
          "name": "itemId",
          "type": "uint256"
        },
        {
          "internalType": "address",
          "name": "nftContract",
          "type": "address"
        },
        {
          "internalType": "uint256",
          "name": "tokenId",
          "type": "uint256"
        },
        {
          "internalType": "address payable",
          "name": "seller",
          "type": "address"
        },
        {
          "internalType": "address payable",
          "name": "owner",
          "type": "address"
        },
        {
          "internalType": "uint256",
          "name": "price",
          "type": "uint256"
        },
        {
          "internalType": "bool",
          "name": "sold",
          "type": "bool"
        }
      ],
      "stateMutability": "view",
      "type": "function"
    }
  ],
  "bytecode": "0x60a060405260006001556658d15e1762800060035534801561002057600080fd5b5060016000819055503373ffffffffffffffffffffffffffffffffffffffff1660808173ffffffffffffffffffffffffffffffffffffffff16815250506080516119d06100786000396000610df201526119d06000f3fe60806040526004361061007b5760003560e01c8063616f43331161004e578063616f433314610135578063c23b139e14610160578063c78f19f91461017c578063f064c32e146101a75761007b565b80630f08efe01461008057806351f28e14146100ab57806358eb2df5146100ee5780635ab45cbc1461010a575b600080fd5b34801561008c57600080fd5b506100956101d2565b6040516100a2919061141f565b60405180910390f35b3480156100b757600080fd5b506100d260048036038101906100cd9190611472565b61048e565b6040516100e597969594939291906114db565b60405180910390f35b61010860048036038101906101039190611576565b61053d565b005b34801561011657600080fd5b5061011f610817565b60405161012c919061141f565b60405180910390f35b34801561014157600080fd5b5061014a610b29565b60405161015791906115c9565b60405180910390f35b61017a600480360381019061017591906115e4565b610b2f565b005b34801561018857600080fd5b50610191610e65565b60405161019e91906115c9565b60405180910390f35b3480156101b357600080fd5b506101bc610e6b565b6040516101c9919061141f565b60405180910390f35b60606000600154905060006002546001546101ed9190611653565b905060008167ffffffffffffffff81111561020b5761020a611687565b5b60405190808252806020026020018201604052801561024457816020015b6102316111cb565b8152602001906001900390816102295790505b509050600080600190505b84811161048357600073ffffffffffffffffffffffffffffffffffffffff166004600083815260200190815260200160002060040160009054906101000a900473ffffffffffffffffffffffffffffffffffffffff1673ffffffffffffffffffffffffffffffffffffffff161480156102e957506004600082815260200190815260200160002060060160009054906101000a900460ff16155b1561047257600460008281526020019081526020016000206040518060e0016040529081600082015481526020016001820160009054906101000a900473ffffffffffffffffffffffffffffffffffffffff1673ffffffffffffffffffffffffffffffffffffffff1673ffffffffffffffffffffffffffffffffffffffff168152602001600282015481526020016003820160009054906101000a900473ffffffffffffffffffffffffffffffffffffffff1673ffffffffffffffffffffffffffffffffffffffff1673ffffffffffffffffffffffffffffffffffffffff1681526020016004820160009054906101000a900473ffffffffffffffffffffffffffffffffffffffff1673ffffffffffffffffffffffffffffffffffffffff1673ffffffffffffffffffffffffffffffffffffffff168152602001600582015481526020016006820160009054906101000a900460ff16151515158152505083838151811061045a576104596116b6565b5b60200260200101819052508161046f906116e5565b91505b8061047c906116e5565b905061024f565b508194505050505090565b60046020528060005260406000206000915090508060000154908060010160009054906101000a900473ffffffffffffffffffffffffffffffffffffffff16908060020154908060030160009054906101000a900473ffffffffffffffffffffffffffffffffffffffff16908060040160009054906101000a900473ffffffffffffffffffffffffffffffffffffffff16908060050154908060060160009054906101000a900460ff16905087565b61054561117b565b6003543414610589576040517f08c379a0000000000000000000000000000000000000000000000000000000008152600401610580906117b0565b60405180910390fd5b6001600081548092919061059c906116e5565b91905055506040518060e0016040528060015481526020018473ffffffffffffffffffffffffffffffffffffffff1681526020018381526020013373ffffffffffffffffffffffffffffffffffffffff168152602001600073ffffffffffffffffffffffffffffffffffffffff168152602001828152602001600015158152506004600060015481526020019081526020016000206000820151816000015560208201518160010160006101000a81548173ffffffffffffffffffffffffffffffffffffffff021916908373ffffffffffffffffffffffffffffffffffffffff1602179055506040820151816002015560608201518160030160006101000a81548173ffffffffffffffffffffffffffffffffffffffff021916908373ffffffffffffffffffffffffffffffffffffffff16021790555060808201518160040160006101000a81548173ffffffffffffffffffffffffffffffffffffffff021916908373ffffffffffffffffffffffffffffffffffffffff16021790555060a0820151816005015560c08201518160060160006101000a81548160ff0219169083151502179055509050508273ffffffffffffffffffffffffffffffffffffffff166323b872dd3330856040518463ffffffff1660e01b8152600401610784939291906117d0565b600060405180830381600087803b15801561079e57600080fd5b505af11580156107b2573d6000803e3d6000fd5b50505050818373ffffffffffffffffffffffffffffffffffffffff166001547f6c768f237d15b0eedb46b2f49918dc5109839c2d232c382d377c40fabeeec92d3385604051610802929190611807565b60405180910390a46108126111c1565b505050565b606060006001549050600080600190505b60015481116108b8573373ffffffffffffffffffffffffffffffffffffffff166004600083815260200190815260200160002060040160009054906101000a900473ffffffffffffffffffffffffffffffffffffffff1673ffffffffffffffffffffffffffffffffffffffff16036108a757816108a4906116e5565b91505b806108b1906116e5565b9050610828565b5060008167ffffffffffffffff8111156108d5576108d4611687565b5b60405190808252806020026020018201604052801561090e57816020015b6108fb6111cb565b8152602001906001900390816108f35790505b509050600080600190505b848111610b1e573373ffffffffffffffffffffffffffffffffffffffff166004600083815260200190815260200160002060040160009054906101000a900473ffffffffffffffffffffffffffffffffffffffff1673ffffffffffffffffffffffffffffffffffffffff1603610b0d57600460008281526020019081526020016000206040518060e0016040529081600082015481526020016001820160009054906101000a900473ffffffffffffffffffffffffffffffffffffffff1673ffffffffffffffffffffffffffffffffffffffff1673ffffffffffffffffffffffffffffffffffffffff168152602001600282015481526020016003820160009054906101000a900473ffffffffffffffffffffffffffffffffffffffff1673ffffffffffffffffffffffffffffffffffffffff1673ffffffffffffffffffffffffffffffffffffffff1681526020016004820160009054906101000a900473ffffffffffffffffffffffffffffffffffffffff1673ffffffffffffffffffffffffffffffffffffffff1673ffffffffffffffffffffffffffffffffffffffff168152602001600582015481526020016006820160009054906101000a900460ff161515151581525050838381518110610af557610af46116b6565b5b602002602001018190525081610b0a906116e5565b91505b80610b17906116e5565b9050610919565b508194505050505090565b60025481565b610b3761117b565b6000600460008381526020019081526020016000206000015403610b90576040517f08c379a0000000000000000000000000000000000000000000000000000000008152600401610b879061187c565b60405180910390fd5b600015156004600083815260200190815260200160002060060160009054906101000a900460ff16151514610bfa576040517f08c379a0000000000000000000000000000000000000000000000000000000008152600401610bf1906118e8565b60405180910390fd5b60046000828152602001908152602001600020600501543414610c52576040517f08c379a0000000000000000000000000000000000000000000000000000000008152600401610c499061197a565b60405180910390fd5b6004600082815260200190815260200160002060030160009054906101000a900473ffffffffffffffffffffffffffffffffffffffff1673ffffffffffffffffffffffffffffffffffffffff166108fc349081150290604051600060405180830381858888f19350505050158015610cce573d6000803e3d6000fd5b508173ffffffffffffffffffffffffffffffffffffffff166323b872dd303360046000868152602001908152602001600020600201546040518463ffffffff1660e01b8152600401610d22939291906117d0565b600060405180830381600087803b158015610d3c57600080fd5b505af1158015610d50573d6000803e3d6000fd5b5050505060026000815480929190610d67906116e5565b919050555060016004600083815260200190815260200160002060060160006101000a81548160ff021916908315150217905550336004600083815260200190815260200160002060040160006101000a81548173ffffffffffffffffffffffffffffffffffffffff021916908373ffffffffffffffffffffffffffffffffffffffff1602179055507f000000000000000000000000000000000000000000000000000000000000000073ffffffffffffffffffffffffffffffffffffffff166108fc6003549081150290604051600060405180830381858888f19350505050158015610e58573d6000803e3d6000fd5b50610e616111c1565b5050565b60035481565b606060006001549050600080600190505b828111610f0a573373ffffffffffffffffffffffffffffffffffffffff166004600083815260200190815260200160002060030160009054906101000a900473ffffffffffffffffffffffffffffffffffffffff1673ffffffffffffffffffffffffffffffffffffffff1603610ef95781610ef6906116e5565b91505b80610f03906116e5565b9050610e7c565b5060008167ffffffffffffffff811115610f2757610f26611687565b5b604051908082528060200260200182016040528015610f6057816020015b610f4d6111cb565b815260200190600190039081610f455790505b509050600080600190505b848111611170573373ffffffffffffffffffffffffffffffffffffffff166004600083815260200190815260200160002060030160009054906101000a900473ffffffffffffffffffffffffffffffffffffffff1673ffffffffffffffffffffffffffffffffffffffff160361115f57600460008281526020019081526020016000206040518060e0016040529081600082015481526020016001820160009054906101000a900473ffffffffffffffffffffffffffffffffffffffff1673ffffffffffffffffffffffffffffffffffffffff1673ffffffffffffffffffffffffffffffffffffffff168152602001600282015481526020016003820160009054906101000a900473ffffffffffffffffffffffffffffffffffffffff1673ffffffffffffffffffffffffffffffffffffffff1673ffffffffffffffffffffffffffffffffffffffff1681526020016004820160009054906101000a900473ffffffffffffffffffffffffffffffffffffffff1673ffffffffffffffffffffffffffffffffffffffff1673ffffffffffffffffffffffffffffffffffffffff168152602001600582015481526020016006820160009054906101000a900460ff161515151581525050838381518110611147576111466116b6565b5b60200260200101819052508161115c906116e5565b91505b80611169906116e5565b9050610f6b565b508194505050505090565b6002600054036111b7576040517f3ee5aeb500000000000000000000000000000000000000000000000000000000815260040160405180910390fd5b6002600081905550565b6001600081905550565b6040518060e0016040528060008152602001600073ffffffffffffffffffffffffffffffffffffffff16815260200160008152602001600073ffffffffffffffffffffffffffffffffffffffff168152602001600073ffffffffffffffffffffffffffffffffffffffff168152602001600081526020016000151581525090565b600081519050919050565b600082825260208201905092915050565b6000819050602082019050919050565b6000819050919050565b61128b81611278565b82525050565b600073ffffffffffffffffffffffffffffffffffffffff82169050919050565b60006112bc82611291565b9050919050565b6112cc816112b1565b82525050565b60006112dd82611291565b9050919050565b6112ed816112d2565b82525050565b60008115159050919050565b611308816112f3565b82525050565b60e0820160008201516113246000850182611282565b50602082015161133760208501826112c3565b50604082015161134a6040850182611282565b50606082015161135d60608501826112e4565b50608082015161137060808501826112e4565b5060a082015161138360a0850182611282565b5060c082015161139660c08501826112ff565b50505050565b60006113a8838361130e565b60e08301905092915050565b6000602082019050919050565b60006113cc8261124c565b6113d68185611257565b93506113e183611268565b8060005b838110156114125781516113f9888261139c565b9750611404836113b4565b9250506001810190506113e5565b5085935050505092915050565b6000602082019050818103600083015261143981846113c1565b905092915050565b600080fd5b61144f81611278565b811461145a57600080fd5b50565b60008135905061146c81611446565b92915050565b60006020828403121561148857611487611441565b5b60006114968482850161145d565b91505092915050565b6114a881611278565b82525050565b6114b7816112b1565b82525050565b6114c6816112d2565b82525050565b6114d5816112f3565b82525050565b600060e0820190506114f0600083018a61149f565b6114fd60208301896114ae565b61150a604083018861149f565b61151760608301876114bd565b61152460808301866114bd565b61153160a083018561149f565b61153e60c08301846114cc565b98975050505050505050565b611553816112b1565b811461155e57600080fd5b50565b6000813590506115708161154a565b92915050565b60008060006060848603121561158f5761158e611441565b5b600061159d86828701611561565b93505060206115ae8682870161145d565b92505060406115bf8682870161145d565b9150509250925092565b60006020820190506115de600083018461149f565b92915050565b600080604083850312156115fb576115fa611441565b5b600061160985828601611561565b925050602061161a8582860161145d565b9150509250929050565b7f4e487b7100000000000000000000000000000000000000000000000000000000600052601160045260246000fd5b600061165e82611278565b915061166983611278565b925082820390508181111561168157611680611624565b5b92915050565b7f4e487b7100000000000000000000000000000000000000000000000000000000600052604160045260246000fd5b7f4e487b7100000000000000000000000000000000000000000000000000000000600052603260045260246000fd5b60006116f082611278565b91507fffffffffffffffffffffffffffffffffffffffffffffffffffffffffffffffff820361172257611721611624565b5b600182019050919050565b600082825260208201905092915050565b7f5072696365206d75737420626520657175616c20746f206c697374696e67507260008201527f6963650000000000000000000000000000000000000000000000000000000000602082015250565b600061179a60238361172d565b91506117a58261173e565b604082019050919050565b600060208201905081810360008301526117c98161178d565b9050919050565b60006060820190506117e560008301866114ae565b6117f260208301856114ae565b6117ff604083018461149f565b949350505050565b600060408201905061181c60008301856114ae565b611829602083018461149f565b9392505050565b7f4974656d206e6f7420666f756e64000000000000000000000000000000000000600082015250565b6000611866600e8361172d565b915061187182611830565b602082019050919050565b6000602082019050818103600083015261189581611859565b9050919050565b7f4974656d20697320616c726561647920736f6c64000000000000000000000000600082015250565b60006118d260148361172d565b91506118dd8261189c565b602082019050919050565b60006020820190508181036000830152611901816118c5565b9050919050565b7f5072696365206d75737420626520657175616c20746f206974656d207072696360008201527f6500000000000000000000000000000000000000000000000000000000000000602082015250565b600061196460218361172d565b915061196f82611908565b604082019050919050565b6000602082019050818103600083015261199381611957565b905091905056fea2646970667358221220926b6a8c151e5ac5e720627aae16db31e2571cb5516017df46e60b114eb018b964736f6c63430008140033",
  "linkReferences": {},
  "deployedLinkReferences": {}
}